:020000040800F2
:10000000405300207D02000803360008652E0008DA
:1000100001360008610500080140000800000000EA
:10002000000000000000000000000000C101000806
:10003000110700080000000015020008E73800085A
:10004000970200089702000897020008970200082C
:10005000970200089702000897020008970200081C
:10006000970200089702000897020008970200080C
:10007000F50500089702000801060008970200082D
:100080000D0600081906000831040008C50500081F
:10009000B9050008970200089702000897020008B7
:1000A00097020008E9390008970200089702000843
:1000B00097020008970200089702000897020008BC
:1000C00097020008970200089702000897020008AC
:1000D00097020008A13F0008B93F0008D13F00087F
:1000E000970200089702000897020008970200088C
:1000F000970200089702000897020008970200087C
:10010000970200089702000897020008970200086B
:10011000970200089702000897020008970200085B
:1001200025060008310600083D0600089702000871
:10013000970200089702000897020008E9050008E6
:10014000D1050008DD0500089702000897020008A5
:10015000970200089702000897020008E93F00088C
:10016000970200089702000897020008970200080B
:10017000970200089702000897020008000000009C
:100180009702000897020008A93B0008C13B00083D
:1001900097020008970200089702000897020008DB
:1001A000000000000000000097020008DFF80CD0FB
:1001B00000F0EAF800480047A94A00084053002030
:1001C0002B4B19680868B0E8F04F80F30988BFF33B
:1001D0006F8F4FF0000080F311887047000000001F
:1001E00006480068006880F3088862B661B6BFF30D
:1001F0004F8FBFF36F8F00DF00BF00BF08ED00E03F
:10020000DFF80C00016841F470010160704700BF25
:1002100088ED00E0EFF30980BFF36F8F144B1A688D
:100220001EF0100F08BF20ED108A20E9F04F10607B
:1002300008B44FF0500080F31188BFF34F8FBFF325
:100240006F8F06F02DFD4FF0000080F3118808BC81
:1002500019680868B0E8F04F1EF0100F08BFB0EC46
:10026000108A80F30988BFF36F8F704700BF00BF0B
:10027000A8000020EFF30580704700000648804783
:1002800006480047FEE7FEE7FEE7FEE7FEE7FEE77B
:10029000FEE7FEE7FEE7FEE795390008AD0100083E
:1002A0002DE9F05F0546002092469B4688460646AB
:1002B000814640241BE0284641464746224600F03E
:1002C00053F853465A46C01A914110D31146184666
:1002D000224600F03AF82D1A67EB01084F462246F5
:1002E0000120002100F031F817EB00094E41201EDB
:1002F000A4F10104DFDC484631462A464346BDE806
:10030000F09F40EA01039B0703D009E008C9121FD0
:1003100008C0042AFAD203E011F8013B00F8013BBF
:10032000521EF9D27047D2B201E000F8012B491EEB
:10033000FBD270470022F6E710B513460A46044682
:100340001946FFF7F0FF204610BD202A04DB203AB3
:1003500000FA02F1002070479140C2F1200320FA18
:1003600003F3194390407047202A04DB203A21FA16
:1003700002F00021704721FA02F3D040C2F12002BE
:100380009140084319467047064C074D06E0E06867
:1003900040F0010394E8070098471034AC42F6D3CC
:1003A000FFF708FFC8870008E887000810B5014676
:1003B000806B026C12F0500F05D0806BC26CBDE8F0
:1003C000104008461047016C41F400710164016857
:1003D0008A6812F0405F17D18269AAB9CA6A12F41A
:1003E000700F02D08A6852050ED44A6822F02002AB
:1003F0004A60016C21F480710164016CC90403D46A
:10040000016C41F00101016400F060FC10BD10B509
:10041000806B40210164416C41F00401416400F0B3
:1004200057FC10BD10B5806B00F051FC10BD0000F2
:10043000014800F04EBC0000FC000020454910B50A
:100440004A6822F440324A604A6843681A434A6064
:1004500001684A6822F480724A6001684A68036948
:1004600042EA03224A6001684A6822F040724A6008
:1004700001684A6883681A434A6001688A6822F4FE
:1004800000628A6001688A68C3681A438A60816A68
:100490006FF07062D14201688A6822F070628A60EF
:1004A00001688A680CD0836A1A438A6001688A6886
:1004B00022F040528A6001688A68C36A1A4301E0E8
:1004C00022F040528A6001688A6822F002028A6043
:1004D00001688A68836942EA43028A60016A0029E6
:1004E00001684A680FD042F400624A6001684A68B5
:1004F00022F460424A6001684A68174C436A04EB80
:1005000043331A4301E022F400624A600168CA6A78
:1005100022F47002CA620168CA6A838B0F4C04EB32
:1005200003531A43CA6201688A6822F400728A601F
:1005300001688A68036B42EA43228A6001688A681C
:1005400022F480628A6001688A68406942EA8020F9
:10055000886010BD0023014000E0FFFF0000F0FFB5
:10056000FEE7000010B501221149124800F0CAFC54
:100570000F48801E4188B1F5FA7F01D2012103E0C6
:10058000B1F5966F02D20221017010BDB1F5FA6F7C
:1005900001D20421F8E7B1F52F6F01D20821F3E76A
:1005A00040F6E442914201D21021EDE70021EBE751
:1005B00024000020FC000020014800F0B7BE00002D
:1005C000A4010020014800F0B1BE0000A4010020F9
:1005D000014800F0ABBE0000CC010020014800F053
:1005E000A5BE0000CC010020014800F09FBE000025
:1005F000CC010020014801F069B900004C05002041
:10060000014801F063B90000CC030020014801F06B
:100610005DB90000EC040020014801F057B900006A
:100620002C040020014801F051B9000044010020D1
:10063000014801F04BB90000AC050020014801F071
:1006400045B900008C04002001681823CAB2103A92
:10065000B2FBF3F2054B6FF30901032A9B5CC36500
:1006600000D9091D8165084670470000A087000871
:1006700010B5014600208B698A6A4FF0C07453B1EF
:10068000B3F5005F15D072B1012A0CD0022A0AD04E
:10069000032A09D104E01AB1012A06D0022A03D1A3
:1006A000C96AC90100D5012010BDC96AA142FAD0AA
:1006B00010BD002AF7D0012AF2D0022AF3D0032A73
:1006C000F3D010BD30B50468256825F48025256079
:1006D000046863608368402B036803D099600068F6
:1006E000C26030BD9A600068C16030BD08B50120AD
:1006F0000090102302A214210C2000F013FA08BD70
:10070000446174615F496E7465726661636500007F
:100710007047000070B52049204D214C0988B1F583
:100720002F7F08D900EE100ADFED1E1ADFED1E0A3A
:10073000B8EEC01A13E0A1F1C902B2F5F97F18D8DA
:1007400094ED010AB5EEC00AF1EE10FA10DD00EEEC
:10075000100ADFED161ADFED160AB8EEC01AB7EE72
:10076000000A0F4805F04EFC94ED010A85ED000AE1
:1007700070BDB429FCD210489FED0E0ADFED0F0AC0
:1007800085ED000A0178491C017090ED010A30EEF8
:10079000600A80ED010A70BDD609002048060020DD
:1007A000D41100200000164400007042000096435F
:1007B000000016C300000000FC0700200000B44247
:1007C0002DE9F05F8046A2EB0800401C8A46C6B2C5
:1007D000A3EB0A00401CC7B20025DDF828B011E0E9
:1007E00000240AEB050909E008EB040009F0FF0109
:1007F000C0B25A4602F0D4FF641CE4B2B442F3D350
:100800006D1CEDB2BD42EBD3BDE8F05F02F01CBF42
:100810002DE9F0471D46144688460646C2F180077A
:10082000DDF8209015E0102C18D0182C1DD0202CAD
:1008300012D14B462A464146304600F027F930197E
:10084000C6B2B74204DA08EB0400002600F0FF0845
:10085000AD1C28780028E6D1BDE8F0874B462A4633
:100860004146304600F076F8E9E74B462A464146D5
:10087000304600F0BBF8E2E72DE9F84F203A0024BB
:10088000DDF828B00F46064602F0FF0A7F2802D99D
:1008900000268F1CFFB28020102B0DD0082B52D1C8
:1008A0002A4A02EBCA018246CDF800100098BBF13B
:1008B000000F005D27D124E0254804EB0A11BBF1AD
:1008C000000F405C01D1C043C0B28146002507EB58
:1008D00004088020E84010EA090F06EB050008F044
:1008E000FF01C0B201D0012200E0002202F058FF57
:1008F0006D1CEDB2082DECD3641CE4B2102CDBD3DC
:100900001DE0C043C0B28146002507EB040800BFCC
:100910002AFA05F010EA090F06EB050008F0FF01BE
:10092000C0B201D0012200E0002202F039FF6D1CAC
:10093000EDB2082DECD3641CE4B2082CB6D3BDE8AC
:10094000F84F02F081BEBDE8F88F00000C7A000875
:10095000047D00082DE9FF5F0525147822499B4698
:10096000002000BF00EB001311F81360A64232D143
:1009700001EB430A56789AF80130B3422BD1002498
:100980004FF080090AEB0400BBF1000F807801D121
:10099000C043C0B280460198009900EB540704F0B0
:1009A0000100002501EBC00629FA05F010EA080F46
:1009B00006EB0500F9B2C0B201D0012200E000222E
:1009C00002F0EEFE6D1CEDB2082DEDD3641CE4B216
:1009D000202CD7D303E0401CC0B2A842C2D3BDE84C
:1009E000FF5F02F031BE0000F48200082DE9FF5FD6
:1009F0008A468346032413782349002000EB8005B0
:100A000005EB401511F815609E4235D101EB450903
:100A1000567899F80150B5422ED1002480264FF027
:100A200003080398002809EB040001D0877802E04E
:100A30008078C043C7B2002526FA05F03842404608
:100A4000B4FBF0F202EB0A01B4FBF8F208FB12422D
:100A50000BEBC2002844C9B2C0B201D0012200E0B1
:100A6000002202F09DFE6D1CEDB2082DE4D3641C43
:100A7000E4B2482CD5D303E0401CC0B2A042BDD3A1
:100A8000BDE8FF5F02F0E0BD9E8300082DE9FF5F37
:100A90000625147822499B46002000BF00EB8013F6
:100AA00011F81360A64232D101EB430A56789AF846
:100AB0000130B3422BD100244FF080090AEB04002F
:100AC000BBF1000F807801D1C043C0B280460198CD
:100AD000009900EB940704F00300002501EBC00629
:100AE00029FA05F010EA080F06EB0500F9B2C0B2CA
:100AF00001D0012200E0002202F052FE6D1CEDB296
:100B0000082DEDD3641CE4B2802CD7D303E0401C45
:100B1000C0B2A842C2D3BDE8FF5F02F095BD00009D
:100B20007C8400082DE9F84F0024DDF828A01E463B
:100B3000904689460546102B03D0082E19D106276A
:100B400013E0082711E0334649462846CDF800A0B7
:100B5000FFF792FEE819C5B2782D04D909EB06001B
:100B6000002500F0FF09641CE4B218F80420002AF4
:100B7000E9D1BDE8F88F704778B50024009490F86B
:100B80003C20012A19D0012280F83C200A68072362
:100B90000568092A13D9EE680A3A02EB420293402B
:100BA0009E43EE600A788B680A3A02EB4202934059
:100BB0000268D5682B43D36010E0022078BD2E690F
:100BC00002EB420293409E432E610A788B6802EB4F
:100BD00042029340026815692B4313614A681F2340
:100BE000072A13D205686E6B521E02EB82029340F5
:100BF0009E436E630B790A885B1E92B203EB8303FC
:100C00009A4003685D6B2A435A6327E005680D2A02
:100C100012D22E6BD21F02EB820293409E432E63B0
:100C20000B790A88DB1F92B203EB83039A400368B7
:100C30001D6B2A431A6311E0EE6A0D3A02EB820241
:100C400093409E43EE620B790A880D3B92B203EB10
:100C500083039A400368DD6A2A43DA62174B05680A
:100C6000154A9D4206D10D68122D03D1556845F4F1
:100C70008005556005689D4219D1114D0B68AB4246
:100C800001D0112B13D1536843F40003536009685A
:100C9000A9420CD10B490C4A0968B1FBF2F101EBF6
:100CA0008101490000E0491E00910029FBD180F834
:100CB0003C40002078BD000000230140002001409E
:100CC000120000107400002040420F00704770476F
:100CD000704770B50446006801684268C1F340017E
:100CE000C2F3401251B34AB3216CC90603D4216C3C
:100CF00041F400712164816811F0405F17D1A1694E
:100D0000A9B9C16A11F4700F02D0816849050ED4E7
:100D1000416821F020014160206C20F48070206443
:100D2000206CC00403D4206C40F0010020642046F5
:100D3000FFF7CCFF21686FF012000860206801689F
:100D40004268C1F38001C2F3C01289B382B3216C3F
:100D5000C90603D4216C41F400512164816811F467
:100D6000401F1ED1816B11F4401F02D081684905DC
:100D700017D44168490514D4816811F0405F10D13F
:100D8000A16971B9416821F080014160206C20F4B3
:100D900080502064206CC00503D4206C40F001001A
:100DA00020642046FFF7E7FE21686FF00C00086022
:100DB00020680168426811F0010FC2F380120ED062
:100DC0006AB10068C0070AD0206C40F4803020640B
:100DD000204600F046F821686FF0010008602068A6
:100DE00001684268C1F34011C2F3806200290DD04E
:100DF000002A0BD0616C41F0020161646FF02005A4
:100E000005602046FFF764FF2068056070BD70B57F
:100E100004004FF0000503D0206C002610B107E05D
:100E2000012070BD666484F83C60204600F01AF82A
:100E3000206CC00610D4206C20F4885040F00200D2
:100E400020642046FFF7FAFA6664206C20F0020066
:100E500040F00100206400E0012584F83C60284651
:100E600070BD704770B5064600681D4986B088425F
:100E700034D11C480025016841F48071016000688C
:100E8000694600F480700590402000900320CDE971
:100E90000105154800F0C6FE154C1448C4E90005CC
:100EA0000015A560C4E90350400060618000A061A6
:100EB0004011C4E907052046656200F0D7FD18B16E
:100EC00085210CA003F09DF8B463002205211220B7
:100ED000A66301F043F8122001F034F806B070BDAB
:100EE00000200140443802400000024010640240EB
:100EF000440100202E2E2F5372632F6164632E63F2
:100F000000000000F8B50E4600210446009190F85C
:100F10003C00012807D0012084F83C002068836849
:100F2000DB0702D011E00220F8BD836843F0010323
:100F300083602D482D4B0068B0FBF3F000EB4000C0
:100F400000E0401E00900028FBD120688368DB078A
:100F500048D0236C40F20165AB4343F480732364B3
:100F60004068400505D5206C20F4005040F48050C6
:100F70002064206CC00404D5606C20F0060060641E
:100F800000E0616484F83C10A16B1A48184DC863F6
:100F9000A16B19480864A16B1848C86421686FF0F8
:100FA000220008602068416841F08061416020684B
:100FB000816841F4807181602168134632464C316A
:100FC000A06B00F0E0FD6868C006206802D00C4904
:100FD000884207D1816811F0405F03D1816841F0F8
:100FE000804181600020F8BD7400002040420F0065
:100FF00000230140AD030008250400080F04000889
:101000000020014090F82020012A09D090F82020EB
:10101000022A05D0416A41F48021416201207047D3
:10102000006842690A43426100207047F0B590F8B9
:101030002040012C07D090F82040022C03D0416AB8
:1010400041F4802153E00468A5686D0105D4A568CA
:101050002D0102D4A568ED0046D5A4680125C4F38E
:101060000164A5401D608D684FF4C0739DB1CE68CA
:1010700035434E6845EAC605066803EB0417F5518B
:101080004FF4C275076805EB04150E697E51097DA2
:10109000012905D009E00E88CD6845EA4655EBE701
:1010A00001684E5946F480764E511179D2F80550B8
:1010B0004FF4C67641EA0521056806EB0416A951EE
:1010C0001178D2F801204FF4C47541EA0221026878
:1010D00005EB04155151006803EB0411425842F02E
:1010E000010242500020F0BD416A41F4001141620A
:1010F0000120F0BD10B590F82020012A09D090F809
:101100002020022A05D0416A41F480214162012059
:1011100010BD3A48D0F8002242F00102C0F8002287
:10112000D0F8002222F47C52C0F80022D0F800222D
:101130004B6A42EA0322C0F800220B7D01229A404A
:10114000D0F81C329343C0F81C32CB69B3B9D0F845
:101150000C329343C0F80C328C894B6864F31F4304
:101160004C6900EBC404C4F840320C890B6864F38A
:101170001F434C6900EBC404C4F84432CB69012B13
:1011800016D1D0F80C321343C0F80C320C884B68DF
:1011900064F31F434C6900EBC404C4F840320C896B
:1011A000CB6864F31F434C6900EBC404C4F84432B9
:1011B0008B69002BD0F804320ED01343C0F80432F0
:1011C0000B69002BD0F8143208D01343C0F8143246
:1011D000096A012904D008E09343EFE79343F5E758
:1011E000D0F81C121143C0F81C12D0F8001221F0E4
:1011F0000101C0F80012002010BD00000064004092
:10120000704730B590F82040012C07D090F820406E
:10121000022C03D0416A41F4802109E011B1012977
:1012200009D00CE00468E46807E0416A41F4001169
:101230004162012030BD04682469A407F5D04FF451
:10124000D874056804EB01142D5915F00405956058
:1012500005682D5942D0ED08556005682C59C4F336
:101260004004D4604FF4DA74056804EB01142D597E
:1012700005F00F05156105682D59C5F30725956122
:1012800005682C59240C54614FF4DC72046802EB9D
:101290000112A4581C700468A458240A5C700468E5
:1012A000A458240C9C700468A258120EDA704FF4F3
:1012B000DE72046802EB0112A4581C710468A45881
:1012C000240A5C710468A458240C9C710468A25818
:1012D000120EDA7129B1012909D00DE06D0D1560EA
:1012E000BBE70068C16841F02001C16004E000680C
:1012F000016941F020010161002030BD014600205C
:1013000091F82020012A03D091F82020022A0CD144
:1013100009688A68520100D501208A68120100D547
:10132000401C8968C90000D5401C70472DE9F05F5A
:101330000546006800244669D0F804908768D0F814
:101340000CB0D0F810A0D0F81880F10748D0F907F9
:1013500014D001218160B80703D5284600F09DFA1A
:101360000CE0780702D54FF4006407E0380702D597
:101370004FF4805402E0284600F08EFAF80516D5A6
:1013800029684FF480708860B80503D5284600F0BE
:1013900086FA0CE0780502D544F4005407E03805DD
:1013A00002D544F4804402E0284600F077FAF803BE
:1013B00016D529684FF480308860B80303D52846D5
:1013C00000F06FFA0CE0780302D544F4004407E023
:1013D000380302D544F4803402E0284600F060FA75
:1013E000300707D55FEACB6004D52968102044F4A4
:1013F0000074C86070074FF0080707D55FEA0B70EC
:1014000004D52868C760284600F094F9B00706D5CF
:101410002868C068800702D0284600F08DF9700661
:1014200007D55FEACA6004D52968102044F48064B7
:101430000861B00607D55FEA0A7004D5286807611D
:10144000284600F0F9F9F00606D5286800698007FB
:1014500002D0284600F0F1F9B00308D55FEAC96070
:1014600005D5296810204860284600F0E7F9F00308
:1014700007D55FEA097004D528684760284600F060
:1014800011FA300446D55FEA497040D5F00504D51D
:101490005FEAC87001D044F00104B00504D55FEAEA
:1014A000887001D544F00204700504D55FEA4870E5
:1014B00001D544F00404300529D518F0700F26D06A
:1014C00008F07000402815D006DC102809D020282C
:1014D0000AD0302816D10AE050280ED0602811D149
:1014E0000EE044F008040DE044F010040AE044F07B
:1014F000200407E044F0400404E044F0800401E0EC
:1015000044F480742868816921F070018161296840
:1015100004204860002C05D0686A20436862284691
:10152000FFF76EFEBDE8F09F70B5040003D094F89D
:10153000200010B104E0012070BD204600F082F8C8
:101540002068016821F00201016000F057FC0546A7
:10155000052604E000F052FC401B0A2811D8206840
:1015600040688007F6D42068016841F001010160FD
:1015700000F044FC05460BE000F040FC401B0A284C
:1015800006D9606A40F40030606284F82060D2E7D7
:1015900020684068C007EFD0207E012820680168DD
:1015A0003DD021F080010160607E01282068016843
:1015B00038D021F040010160A07E01282068016838
:1015C00033D021F020010160E07E0128206801680D
:1015D0002ED041F010010160207F012820680168B1
:1015E00029D021F008010160607F0128206801688E
:1015F00024D021F004010160D4E902010843D4E9B8
:101600000412114308436168491E08432168C861F8
:1016100000206062012084F82000002070BD41F0AD
:101620008001C0E741F04001C5E741F02001CAE771
:1016300021F01001CFE741F00801D4E741F00401A7
:10164000D9E70000F0B5364B0768DFF8D0C018685E
:1016500003220224092533490026401C87B0674530
:1016600021D11860012807D1086840F00070086097
:10167000086800F0007005908DE85400CDE903255E
:101680006946294800F0CEFA00220521132000F017
:1016900065FC132000F056FC00220521142000F008
:1016A0005DFC142036E0DFF884C0674534D10F6854
:1016B00047F080670F600F68012807F08067059783
:1016C000186007D1086840F000700860086800F0F2
:1016D000007005904FF440508DE85100CDE903258E
:1016E0006946134800F09EFA002205213F2000F0D1
:1016F00035FC3F2000F026FC00220521402000F0B0
:101700002DFC402000F01EFC00220521412000F0AD
:1017100025FC412000F016FC07B0F0BD006400403D
:101720000000002040380240000C024000680040E9
:1017300000040240704700002DE9F041374D384C5D
:10174000384EA8423DD104F10903374A0021FFF782
:1017500058FD35480068A0F20120062852D2DFE883
:1017600000F0030303032C1EC0B220702F4FC0EB08
:10177000001007EB800081694A1C322927498261E9
:1017800002D802F0D5FF01E002F0AAFF2078234939
:10179000C0EB001007EB800002F0A2FF32E022490C
:1017A00090398869421C32288A611F481B49A0F180
:1017B0009000F1D802F0BCFF24E01B4817495438D0
:1017C000EAE7B0421ED1164B174A11331C320021F2
:1017D000FFF717FD144A1C3210680146A0F20140C1
:1017E00004280FD8124890F86C3013B9012380F800
:1017F0006C30104854F8113F03606368436010690F
:1018000002F09EFF2868416941F0020141613068A1
:10181000416941F002014161BDE8F081A40100206D
:1018200030000020CC0100208C0900200C08002092
:101830008C07002028000020704770477047000088
:1018400070B5044690F82000012804D0606A40F486
:101850000020606218E0022084F8200020680168FF
:1018600021F00101016000F0C9FA05460EE000BF59
:1018700000F0C4FA401B0A2808D9606A40F400301E
:101880006062052084F82000012070BD2068406857
:10189000C007EDD1606270BD7047704770477047F8
:1018A00070477047704790F83510022903D08021A7
:1018B000416501207047052180F8351000680168F6
:1018C00021F0010101600020704700002DE9F8437C
:1018D00004464FF00009CDF8009063484FF41651CC
:1018E000A56D0068B0FBF1F72E6894F85C10082035
:1018F00000FA01F131420FD021680A6852070BD576
:101900000A6822F004020A6094F85C108840A8601B
:10191000606D40F00100606594F85C104FF00108C4
:1019200008FA01F0304208D021684969090604D557
:10193000A860606D40F00200606594F85C100420BF
:101940008840304208D021680968890704D5A8601A
:10195000606D40F00400606594F85C1010208840D1
:10196000304218D021680968090714D5A86020689A
:101970000168490304D50068000308D5A16C07E09D
:101980000168C90503D4016821F008010160216CD8
:1019900009B12046884794F85C10202088403042E6
:1019A00031D021680968C9062DD5A86094F83500A2
:1019B00005282068016806D0490347D50068000360
:1019C0001DD4616C1CE021F01601016020684169A2
:1019D00021F080014161206C08B9A06C20B1206821
:1019E000016821F00801016094F85C103F208840F4
:1019F000A86084F8349084F83580216D1FE0E16B95
:101A000009B120468847606D00282BD0606DC00763
:101A100014D0052084F835002068016821F0010108
:101A200001600098401C0090B84203D8206800680C
:101A3000C007F6D184F8349084F83580E16C002931
:101A400010D001B02046BDE8F04308470168C90541
:101A5000D5D4016821F01001016084F8349084F835
:101A60003580CCE7BDE8F883740000202DE9F04113
:101A7000044600F0C3F906465CB1002584F83450F2
:101A8000022084F835002068016821F0010101601E
:101A90000DE00120BDE8F08100F0B0F9801B0528C1
:101AA00005D920206065032084F83500F2E720681E
:101AB0000068C007F0D12268116820480140D4E9CD
:101AC00001031843D4E903363343184363691843C9
:101AD000A3691843E3691843236A18430843616AFA
:101AE000042903D1D4E90B1319430843106020687B
:101AF0004069666A20F0070130460E43012704283A
:101B00000CD1A06A0643E06A40B12046FEF7B0FD62
:101B100020B14020606584F83570BAE720684661DE
:101B20002046FEF791FD94F85C203F2191408160B2
:101B3000656584F835700020ACE700003F8010F048
:101B400070B5044690F83400002501280CD001201F
:101B500084F8340094F835600020012E06D084F813
:101B600034000225284670BD022070BD022684F88C
:101B7000356060652046FEF7A5FD2068016841F0EC
:101B800001010160EEE72DE9F0410446866D90F811
:101B90003400002501280DD0012084F8340094F889
:101BA00035700020012F07D084F834000225284624
:101BB000BDE8F0810220FBE7022784F835706065FC
:101BC0002046FEF77FFD94F85C103F208840B0600F
:101BD0002068016841F0160101602068416941F008
:101BE00080014161206C20B12068016841F008014A
:101BF00001602068016841F001010160D7E7000041
:101C000070B5044600F0FAF80546601C02D004489E
:101C10000078044400F0F2F8401BA042FAD370BDF3
:101C2000780000202DE9F84FDFF890B100224FF046
:101C300001084FF0030A4FF00F090BF1040E00BF2B
:101C40000B6808FA02F42340A3426ED14D68022DBE
:101C500001D0122D0ED1D50800EB850CDCF82050F8
:101C60005607F70E09FA07F6B5430E69BE402E4334
:101C7000CCF82060066855000F790AFA05FC07F0D9
:101C8000030726EA0C06AF40374307604E68012E73
:101C900005D0022E03D0112E01D0122E0ED187684E
:101CA000CE6827EA0C07AE403E4386604668A643EE
:101CB0000C79C4F30014944034434460C4688E68C3
:101CC00024EA0C04AE402643C6604C68E4006FD59D
:101CD0003B4C256845F480452560246822F00305C7
:101CE00004F480440094374C2E19D6F80848950720
:101CF0002F0F09FA07F5AC43334DA84201D1002557
:101D00002EE0324DA84201D1012529E0304DA842F4
:101D100001D1022524E02F4DA84201D103251FE067
:101D20002D4DA84202D104251AE041E02B4DA842D6
:101D300001D1052514E02A4DA84201D106250FE066
:101D4000284DA84201D107250AE0274DA84201D11C
:101D5000082505E0254DA84201D1092500E00A2506
:101D6000BD402543C6F80858DBF800405D464E6884
:101D70009C43F60300D51C432C60DEF800407546FA
:101D80004E689C43B60300D51C432C600B4D0835B0
:101D90002C684E689C43F60200D51C432C60074D0E
:101DA0000C352C684E689C43B60200D51C432C6051
:101DB000521C102AFFF444AFBDE8F88F003C0140EC
:101DC000443802400030014000000240000402405C
:101DD00000080240000C02400010024000140240C3
:101DE00000180240001C0240002002400024024073
:101DF0000AB1816170470904FBE70000014880686F
:101E00007047000078000020024881680278114481
:101E100081607047780000200B4810B5016841F4DC
:101E200000710160016841F480610160016841F462
:101E300080710160032000F0B1F8002000F006F886
:101E400000F03EF8002010BD003C024010B50146F5
:101E500088B00022192000F081F8192000F072F8F3
:101E600013480024016841F400310160006805A9AD
:101E700000F400300690684600F072F900F0A6F910
:101E80000C494000B0FBF1F10C480B4A491E0260BE
:101E900040F2E732C0E90324C0E9011400F0AEFCCF
:101EA00010B1012008B010BD044800F0C3FCF9E7F0
:101EB0004438024040420F00004401400C0600201C
:101EC0001F4808B5016841F480410160006800F4D2
:101ED000804000901A48001F016841F08051016065
:101EE000006800F080500090032000F057F80022B6
:101EF00011466FF00B0000F031F8002211466FF030
:101F00000A0000F02BF8002211466FF0090000F0E3
:101F100025F800221146501F00F020F8002211463B
:101F2000101F00F01BF800220F21901E00F016F881
:101F300000220F21BDE80840501E00F00FB800003D
:101F40004438024000F01F02012191404009800006
:101F500000F1E020C0F8001170470000F0B40E4B13
:101F60001B680C46C3F30223C3F10705042D00D9F7
:101F70000425191D072901D2002300E0DB1E0126DC
:101F800006FA05F1491E214099409E40761E1640F2
:101F90003143F0BC01F036BB0CED00E0064900F027
:101FA000070208684FF6FF03184040EA0220034A80
:101FB00010430860704700000CED00E00000FA05D7
:101FC0002DE9F8431748016841F08051016000682D
:101FD000154F00F08050012600903E64FFF70EFF81
:101FE00005464FF47A78114C05E000BFFFF706FF75
:101FF000401B40450DD86068C003F7D57E64FFF7ED
:10200000FDFE0546464607E0FFF7F8FE401BB042DE
:1020100002D90320BDE8F88360688003F4D500206E
:10202000F8E700004038024000000E420070004017
:102030002DE9F0470E46050065D0DFF81481D8F889
:102040000000F7B200F00F00B04207D288F800702D
:10205000D8F8000000F00F00B04254D128683D4C81
:10206000810712D5400703D5206840F4E050206076
:102070002878000703D5206840F46040206020687D
:10208000A96820F0F000084320602878C0072DD010
:10209000304968680839012812D0022813D0032873
:1020A00011D00968890700292DDA216821F0030180
:1020B00001432160FFF7A2FE814641F2883A0EE01B
:1020C00009688903EFE709688901ECE7FFF796FEE5
:1020D000A0EB0901514502D90320BDE8F087206833
:1020E000696800F00C00B0EB810FEFD1D8F8001058
:1020F000404601F00F01B14207D90770006800F0B7
:102100000F00B04201D00120E7E72878400705D54D
:102110002068E96820F4E050084320602878000730
:1021200006D52068296920F4604040EAC10020609B
:1021300000F05CF82168084AC1F30311515CC84003
:10214000064908600020FFF781FE0020C5E7000077
:10215000003C0240083802408887000874000020D4
:102160000F2202600C4A136803F0030343601368F4
:1021700003F0F0038360136803F4E053C360126854
:102180004FF4E05303EAD20202610448006800F011
:102190000F0008607047000008380240003C024011
:1021A0000148006870470000740000200448054999
:1021B00000680968044AC1F38221515CC840704735
:1021C0007400002008380240988700080448054938
:1021D00000680968044AC1F34231515CC840704745
:1021E000740000200838024098870008154810B590
:1021F000006810F00C02144813D01449042A0FD0C0
:10220000082A0ED10F4C241F2268236802F03F02D7
:102210005B0207D52068C0F38810A0FB010106E02F
:10222000084610BD2168C1F38811A1FB00010023FD
:10223000FEF736F82168C1F30141491C4900B0FBA3
:10224000F1F010BD083802400024F400001BB70074
:102250002DE9F84F050076D02878DFF8F8B2BE4CAB
:10226000C00749D0DBF800105846C1F381010129AD
:1022700008D00068C0F3810002280AD1201D006840
:10228000400206D52068800336D568680028E2D071
:1022900032E06868B0F5803F10D0B0F5A02F20681C
:1022A00010D020F480302060206820F4802020604E
:1022B0006868A0B1FFF7A2FD06460CE0206840F474
:1022C0008030F4E740F480202060F7E7FFF796FDC8
:1022D000801B642873D820688003F7D50CE0FFF7D3
:1022E0008DFD064605E000BFFFF788FD801B6428D2
:1022F000F0D820688003F7D42878DFF86082800760
:102300004FF000093ED5DBF80010584611F00C0FD5
:1023100009D00068C0F3810002280BD18D48001F4E
:102320000068400206D42068800715D5E8680128B7
:1023300009D111E0E868B8B10120C8F80000FFF742
:102340005DFD064605E002E1FFF758FD801B02280F
:10235000C0D820688007F7D52068296920F0F800E8
:1023600040EAC10020600DE0C8F80090FFF746FD8C
:10237000064604E0FFF742FD801B02281FD82068B4
:102380008007F7D42878000722D5724E744869690F
:102390006C3671B101210160FFF730FD074604E0A2
:1023A000FFF72CFDC01B022809D830688007F7D53D
:1023B0000EE0C0F80090FFF721FD074605E083E03E
:1023C000FFF71CFDC01B02287ED830688007F7D4B9
:1023D0002878400768D5DFF87CA100270AF1380A81
:1023E000DAF80000C0000BD4DAF8001041F0805198
:1023F000CAF80010DAF80000012700F080500090C1
:10240000584E3068C00510D4306840F48070306099
:10241000FFF7F4FC009005E0FFF7F0FC0099401A8C
:10242000022851D83068C005F6D54A4EA8686836EB
:1024300001280FD00528306810D020F0010030604E
:10244000306820F004003060A868B8B1FFF7D6FC0F
:1024500000900FE0306840F00100F4E740F0040025
:102460003060F7E7FFF7CAFC0099411A41F2883063
:10247000814264D830688007F4D50EE0FFF7BEFCD7
:10248000009007E0FFF7BAFC0099411A41F288304A
:10249000814254D830688007F4D42FB1DAF80010A4
:1024A00021F08051CAF80010A869C0B3DBF8001011
:1024B000C1F3810102294AD00228484607D0C8F852
:1024C0006000FFF79BFC00E039E005463AE0474634
:1024D000C8F86000FFF792FC064604E0FFF78EFCA8
:1024E000801B02282BD820688001F7D4D5E907018A
:1024F0000843A96A1C4A490802EB01416A6A41EA99
:102500008211084395F82C1040EA01611148001F20
:10251000016001203866FFF771FC054605E014E014
:10252000FFF76CFC401B022809D820688001F7D512
:102530000BE000BFFFF762FC401B022802D903201A
:10254000BDE8F88F20688001F4D40020F8E701206E
:10255000F6E7000008380240003802400000474219
:10256000800E4742007000400000FFFF70B504007D
:1025700005D00025A56294F8510010B106E00120B5
:1025800070BD84F85050204600F030F8022084F8E6
:1025900051002068016821F040010160D4E9010187
:1025A0000843D4E903121143084361690843218BAE
:1025B00001F400710843E1690843216A0843A16AF4
:1025C000084321680860A069042101EA1040616A9B
:1025D0000843216848602068C16921F40061C16135
:1025E0006565012084F85100002070BDF0B50068D9
:1025F000134987B0884220D112480024016841F471
:10260000805101600068022500F480500590182078
:10261000CDE9000502AA0326052782E8D000694615
:102620000948FFF7FFFA8020CDE9000502AA6946B4
:1026300082E8D0000548FFF7F5FA07B0F0BD0000CA
:1026400000300140443802400004024000000240D3
:102650002DE9F84F044690F8500000269946174699
:102660000D4601280DD04FF0010B84F850B0FFF754
:10267000C5FB804694F85100B246012804D00226DA
:1026800094E00220BDE8F88F002D7BD0002F79D098
:10269000032084F85100C4F854A02563A786E78678
:1026A000C4F838A0A4F83CA0A4F83EA0C4F844A004
:1026B000C4F840A0A068B0F5004F04D120680168BC
:1026C00041F48041016020680168490603D4016833
:1026D00041F040010160E068B0F5006F606804D02F
:1026E00030B3E08E012823D03EE010B1E08E012807
:1026F0001AD135F8021B206805E020688168890737
:1027000006D535F8021BC160E08E401EE0860BE066
:10271000B9F1000F34D0B9F1FF3F05D0FFF76EFBE0
:10272000A0EB080149452BD2E08E0028E5D11EE040
:10273000216815F8010B087306E020688168890795
:1027400006D515F8011B0173E08E401EE0860BE0F4
:10275000B9F1000F14D0B9F1FF3F05D0FFF74EFBE0
:10276000A0EB080149450BD2E08E0028E5D14B468D
:10277000012202212046CDF8008001F065F810B159
:10278000032613E011E042464946204601F04CF88A
:1027900018B101262020606508E0A06818B92068FB
:1027A000C16880680090606D00B1012684F851B066
:1027B00084F850A0304665E74FF0E021042808690E
:1027C00003D020F004000861704740F00400FAE7ED
:1027D00010B5401EB0F1807F01D3012010BD4FF035
:1027E000E02460610F21601700F00CFF0020A06161
:1027F00007202061002010BD7047704710B504000D
:1028000003D094F8390010B107E0012010BD00207A
:1028100084F83800204600F00CF8022084F83900D3
:10282000211D206801F0E6F8012084F8390000201D
:1028300010BD70470168CA6842F00102CA600068B2
:10284000016841F00101016000207047704770B5D8
:102850000446006801694FF00005C943890715D493
:10286000C168C943890711D4E91E0161012020769E
:10287000206880698007204602D0FFF7E7FF04E068
:1028800000F098F8204600F096F825762068016957
:10289000C943490717D4C168C943490713D46FF026
:1028A00004010161022020762068806910F4407FD5
:1028B000204602D0FFF7CAFF04E000F07BF8204674
:1028C00000F079F8257620680169C943090716D414
:1028D000C168C943090712D46FF0080101610420DF
:1028E00020762068C0698007204602D0FFF7AEFF3F
:1028F00004E000F05FF8204600F05DF825762068DF
:102900000169C943C90617D4C168C943C90613D4AC
:102910006FF010010161082020762068C06910F472
:10292000407F204602D0FFF791FF04E000F042F81C
:10293000204600F040F8257620680169C943C907A0
:1029400008D1C168C943C90704D1891E0161204665
:1029500000F032F820680169C943090609D4C1684A
:10296000C943090605D46FF0800101612046FFF7D5
:1029700043FF20680169C943490609D4C168C943B6
:10298000490605D46FF040010161204600F01EF8B1
:1029900020680169C94389060BD4C168C943890607
:1029A00007D46FF0200101612046BDE87040FFF7B9
:1029B00024BF70BD7047704700680349884201D149
:1029C000FFF722BA7047000000440140704770478B
:1029D00070B5026804461068D168536910F00F0F93
:1029E00050D003F0010501F4907635435DD0C20765
:1029F00005D0CA0503D5E26B42F00102E26342074B
:102A000005D5DA0703D0E26B42F00202E2638207E7
:102A100005D5DA0703D0E26B42F00402E263020755
:102A200005D5DA0703D0E26B42F00802E263E26BFD
:102A3000002A33D0800604D5880602D5204601F04E
:102A4000E1F820684069E16BC0F38010090700D409
:102A500028B3204601F0C8F82068416949061AD514
:102A6000416921F040014161606BA0B11B490165E2
:102A7000606BFEF718FF002810D0606B016DBDE899
:102A800070400847830610D58B060ED52046BDE85A
:102A9000704001F0B7B82046FFF799FF70BD20469F
:102AA000FFF795FF0020E06370BD030606D50B0617
:102AB00004D52046BDE8704001F040BA4006F3D589
:102AC0004806F1D5D168204621F04001D16020218F
:102AD00084F8391000F0C5F970BD0000D93B00083A
:102AE00070B5040004D094F83900002510B106E058
:102AF000012070BD84F83850204600F023F82420CF
:102B000084F839002068C16821F40051C160204672
:102B100001F0BEF82068016921F49041016120684C
:102B2000416921F02A0141612068C16841F40051E6
:102B3000C160E563202084F8390084F83A00002061
:102B400070BD00002DE9F04F0546DFF8C482022178
:102B5000D0F800C00024AF4B012203200827DFF883
:102B6000B8924E0287B04FF0206BC44530D1D3F8F5
:102B700000C04CF0804CC3F800C01B6803F08043D9
:102B80000593C3010093CDE90112CDE9030769461E
:102B90004846FFF747F8A24FA0483860C7E901B49C
:102BA000C7E903467C61BC61FC613C6238467C62DB
:102BB000FEF75CFF18B1DF219AA001F022FA6F63E3
:102BC000002205215220BD63FFF7C8F9522034E0EE
:102BD000DFF86082C44535D1D3F800C04CF0004C1A
:102BE000C3F800C01B6803F0004305938DE807009D
:102BF000CDE9030769464846FFF714F8884F874830
:102C0000603748303860C7E901B4C7E903467C61E2
:102C1000BC61FC613C6238467C62FEF727FF20B154
:102C20004FF486717FA001F0ECF96F63002205215B
:102C30005320BD63FFF792F95320FFF783F907B0E4
:102C4000BDE8F08FDFF8F081DFF8C8E14FF0070949
:102C50000EF1040E4FF0006AC44533D1DEF8007067
:102C600047F01007CEF80070DEF8003003F01003D4
:102C70000593C0230093CDE90112CDE9030969460C
:102C80006E48FEF7CFFF664F6D48C0373860C7E922
:102C900001A4C7E903467C61BC61FC613C62384623
:102CA0007C62FEF7E3FE20B140F239115DA001F035
:102CB000A8F96F63002205212520BD63FFF74EF9B7
:102CC0002520BAE7DFF87C81C44530D11F6847F47E
:102CD00000371F601B6803F4003305930C23009337
:102CE000CDE90112CDE9030969465748FEF79AFF7D
:102CF0004A48564F30303860C7E901A4C7E9034657
:102D00007C61BC61FC613C6238467C62FEF7AEFED1
:102D100020B14FF4B37143A001F073F96F63002247
:102D200005212620BD63FFF719F9262085E7DFF886
:102D30002081C44532D11F6847F480271F601B687B
:102D400003F4802305934FF440630093CDE901120F
:102D5000CDE9030969463F48FEF764FF3B4F2F4822
:102D6000603730383860C7E901A4C7E903467C61A1
:102D7000BC61FC613C6238467C62FEF777FE20B1A4
:102D800040F2931127A001F03CF96F630022052166
:102D90002720BD63FFF7E2F827204EE72E4B9C4526
:102DA0007FF44DAFDEF800C04CF0200CCEF800C030
:102DB000DEF8003003F0200305934FF484430093C2
:102DC000CDE90112CDE9030769462448FEF72AFF41
:102DD0001E4F1B48C03718383860C7E901B4C7E92F
:102DE00003467C61BC61FC613C6238467C62FEF754
:102DF0003DFE20B14FF4E0710AA001F002F96F63CB
:102E0000002205214720BD63FFF7A8F8472014E7FB
:102E100000780040403802400010024058600240F4
:102E2000CC0300202E2E2F5372632F7573617274A2
:102E30002E630000007C00400010014000040240AE
:102E4000406402400044004000000240EC040020C6
:102E500000480040000802400014014000180240F1
:102E600070477047FEE700002DE9F047FDF77AFB59
:102E7000DFF8D0811026744C98F80000002730BB92
:102E80002079402803D0002150281CD000E00121E7
:102E900000221143602818D00020014317D0E068B9
:102EA00040F2E731401CE060A0F2D17088420FD2BE
:102EB000207810280CD0002000F0B4FB26704FF4CE
:102EC0007A60E06004E00122E3E70120E5E7E760E3
:102ED00098F800004FF0280501071BD52169491C0F
:102EE0002161042917D92278202A02D0302A08D05B
:102EF00011E0A278102A0ED91E290CD2103AA27025
:102F000006E02279102A06D91E2904D2103A22712D
:102F1000256100E02761C1061BD56169491C61611B
:102F2000042917D92278202A02D0302A08D011E0AB
:102F3000A278302A0ED21E290CD21032A27006E0DE
:102F40002279302A06D21E2904D2103222716561FC
:102F500000E06761C246C0074FF020083FD0206AFA
:102F60004FF04009401C2062042811D92178202903
:102F70000ED150280CD2A078102806D1002000F0E5
:102F800051FB3020207026712562A078202806D0C1
:102F9000206A642810D92078102807D00FE000207C
:102FA00000F040FB84F80090256208E0002000F06B
:102FB00039FB84F80080A670206A042810D9207993
:102FC00010280DD1206A28280AD2002000F02AFB00
:102FD0001E4984F8049001200870256200E02762F1
:102FE0009AF8000080072AD5A069401CA061042837
:102FF00013D921785025202911D0302916D0042842
:103000000BD9402909D13C2807D2002000F00AFB47
:1030100084F8008084F80280A561BDE8F0873C2830
:10302000FBD2002000F0FEFA2670F5E73C28F4D22F
:10303000002000F0F7FA84F80080A670ECE7A761A2
:10304000EBE700002200002014070020FC0700200E
:103050001FB516481449012401604FF44031416006
:103060000021816001618461114A0162C0E90A2185
:10307000C46104634461C160FDF7C9FE18B1542105
:103080000CA000F0BEFF0620CDE900040320029052
:1030900069460648FDF770FD002803D05E2105A0B3
:1030A00000F0AFFF1FBD000000200140FC00002029
:1030B0000100000F2E2E2F5372632F6164632E6365
:1030C00000000000104810B50E4901600521416064
:1030D00000214FF400328160C0E9031252014261C5
:1030E0000176012242768176C17601774177FEF73B
:1030F0001BFA002805D0BDE81040502103A000F0C5
:1031000080BF10BD00640040A40100202E2E2F536C
:1031100072632F63616E2E6300000000114810B5CA
:103120000F4901600521416000214FF04072C0E964
:1031300002124FF400320261520142610176012213
:1031400042768176C17601774177FEF7EDF9002866
:1031500005D0BDE81040662103A000F052BF10BDAD
:1031600000680040CC0100202E2E2F5372632F6385
:10317000616E2E6300000000254808B5016841F427
:1031800080010160016801F480010091016841F44F
:10319000001101600068002200F400100090052179
:1031A0000C20FEF7DBFE0C20FEF7CCFE00220521F2
:1031B0000E20FEF7D3FE0E20FEF7C4FE00220521EE
:1031C0001020FEF7CBFE1020FEF7BCFE00220521EA
:1031D0001120FEF7C3FE1120FEF7B4FE00220521E8
:1031E0003820FEF7BBFE3820FEF7ACFE002205219A
:1031F0003920FEF7B3FE3920FEF7A4FE0022052198
:103200003A20FEF7ABFEBDE808403A20FEF79ABE32
:103210003038024030B593B003F036FB234D002226
:10322000012128680F900FA802F0B0F9204C00226D
:103230000121A0606868109010A802F0A7F9E06072
:10324000A86811900022012111A802F09FF92061C5
:10325000E86812900022012112A802F097F960613B
:10326000142205F110016846FDF74BF8002168466D
:1032700002F075F9A061142205F1240105A8FDF7FB
:1032800040F8002105A802F06AF92060142205F137
:1032900038010AA8FDF735F800210AA802F05FF905
:1032A000606003F011FB13B030BD0000C07900086E
:1032B000040000202DE9F041374886B00024016861
:1032C00041F010010160016801F0100105910168F1
:1032D00041F040010160016801F040010591016881
:1032E00041F002010160016801F0020105910168ED
:1032F00041F001010160016801F0010105910168DF
:1033000041F008010160016801F0080105910168C0
:1033100041F004010160016801F0040105910168B8
:1033200041F08001016000681C4E00F080004FF405
:10333000C0650590002229463046FEF759FD184F1A
:1033400000223C213846FEF753FDDFF85880012269
:1033500002214046FEF74CFD00950125CDE90154C0
:10336000694630460394FEF75DFC3C200090CDE9B1
:103370000154694638460394FEF754FC0220CDE917
:1033800000050320CDE9024069464046FEF74AFCAD
:1033900006B0BDE8F0810000303802400004024071
:1033A000001C024000180240104810B50E49016090
:1033B0004FF48271416000218160C1604FF400725E
:1033C0000161C0E90512C1610162416281620A21A5
:1033D000C162FFF7CBF8002805D0BDE810404F21AF
:1033E00003A000F00EBE10BD00300140F40100202B
:1033F0002E2E2F5372632F7370692E63000000000E
:103400000D4810B50B4901604FF416514160002181
:1034100081600C22C160C0E904128161C161FFF7C3
:103420005FFB002805D0BDE81040572103A000F045
:10343000E8BD10BD007800404C0200202E2E2F5316
:1034400072632F75736172742E6300000D4810B59E
:103450000B4901604FF416514160002181600C223C
:10346000C160C0E904128161C161FFF739FB002826
:1034700005D0BDE81040692103A000F0C2BD10BD19
:10348000007C00408C0200202E2E2F5372632F757B
:10349000736172742E6300000D4810B50B49016012
:1034A0000C494160002181600C22C160C0E9041216
:1034B0008161C161FFF714FB002805D0BDE8104011
:1034C0007C2105A000F09DBD10BD00000010014052
:1034D000CC020020A08601002E2E2F5372632F7580
:1034E000736172742E6300000D4810B50B490160C2
:1034F0004FF416514160002181600C22C160C0E987
:1035000004128161C161FFF7EBFA002805D0BDE824
:1035100010408F2103A000F074BD10BD0044004096
:103520000C0300202E2E2F5372632F75736172745B
:103530002E6300000D4810B50B4901604FF4E131D6
:103540004160002181600C22C160C0E904128161E8
:10355000C161FFF7C5FA002805D0BDE81040A221DF
:1035600003A000F04EBD10BD004800404C030020F9
:103570002E2E2F5372632F75736172742E630000A9
:103580000D4810B50B4901604FF416514160002100
:1035900081600C22C160C0E904128161C161FFF742
:1035A0009FFA002805D0BDE81040B52103A000F027
:1035B00028BD10BD001401408C0300202E2E2F5377
:1035C00072632F75736172742E63000038B5012425
:1035D00007A318220C2120200094FDF719F91023CD
:1035E00005A225212D200094FDF79CFA38BD00008E
:1035F000B6ABB7BDBAEC00005461757275730000CC
:10360000FEE770470907090E002806DA00F00F00F0
:1036100000F1E02080F8141D704700F1E02080F8F0
:103620000014704710B54FF4806120B1FF220548A7
:10363000FCF779FE02E00348FCF77CFEBDE8104091
:1036400000F002B8E609002070B5114E002400BF5A
:1036500004F1B000C0B2002100F0B4F80021022053
:1036600000F0B0F80021102000F0ACF85FF0000589
:1036700005EBC4100121305C00F0A4F86D1CEDB224
:10368000802DF5D3641CE4B2082CE1D370BD00009A
:10369000E609002010B500F067F80021AE2000F028
:1036A00091F80021322000F08DF80021402000F038
:1036B00089F80021812000F085F80021812000F0A8
:1036C00081F80021A12000F07DF80021A42000F065
:1036D00079F80021A62000F075F80021A82000F05C
:1036E00071F800213F2000F06DF80021AD2000F0BE
:1036F00069F800218B2000F065F80021C82000F057
:1037000061F80021D32000F05DF80021084600F0A8
:1037100059F80021D52000F055F80021802000F054
:1037200051F80021D92000F04DF800211F2000F0B1
:1037300049F80021DA2000F045F80021122000F0BD
:1037400041F80021DB2000F03DF80021402000F08E
:1037500039F80021AF2000F035F802491020087038
:1037600010BD00001407002070B501220B4D94021B
:1037700021462846FEF73CFB6420FEF741FA002272
:1037800021462846FEF734FB6420FEF739FA21462D
:103790002846BDE870400122FEF72ABB0004024023
:1037A00030B501F007050123AB40054CC90800EB1B
:1037B000C111605C0AB1184300E09843605430BD09
:1037C000E609002073B50F484FF4007309B10122D8
:1037D00000E000221946FEF70BFB0B4D4FF400648E
:1037E000002221462846FEF703FB4FF47A7301229C
:1037F00069460648FEF72CFF012221462846FEF7BF
:10380000F7FA7CBD00040240000C0240F4010020E5
:1038100030B4034C4466034C846630BC01F0D8BF1E
:10382000D1570008DF57000838B50B460092044610
:103830000022802100F008F8002804D0606D40F0DC
:1038400020006065032038BD2DE9F0411D46174674
:103850000E460446DDF8188035E0681C33D02DB1E3
:10386000FEF7CCFAA0EB0800A8422CD320684168F0
:1038700021F0E00141606068B0F5827F0BD1A06863
:10388000B0F5004F02D0B0F5806F04D12068016818
:1038900021F040010160A06AB0F5005F0AD1206804
:1038A00001684DF6FF72114001602068016841F423
:1038B00000510160012084F85100002084F850007C
:1038C0000320BDE8F0812068806836EA000004D05B
:1038D0000020B842C1D10020F3E70120F9E7012020
:1038E00001F0BAFDFBE701F030BE000030B527481B
:1038F00093B00025016841F080510160006800F03C
:10390000805011902248016841F4404101600068F4
:10391000022400F440401190012000900004019026
:103920008001CDE9064006200890B420CDE90904C5
:1039300004200B906846FEF78BFC00B1FEE7FEF713
:103940003FFB00B1FEE70CA90F2081E831004FF4E6
:10395000A0500F904FF48050109005210CA8FEF756
:1039600067FB00B1FEE7FEF71BFC4FF47A71B0FB7A
:10397000F1F0FEF72DFF0420FEF71EFF00220F21BD
:10398000501EFEF7EBFA13B030BD00004038024085
:10399000007000401048016841F4700101600F4858
:1039A000016841F0010101600C4A002108321160F8
:1039B00002680B4B1A400260031D0A4A1A60026833
:1039C00022F48022026005480C300160024958064A
:1039D000803908607047000088ED00E00038024040
:1039E000FFFFF6FE103000240148FEF730BF000054
:1039F0000C060020F0B50268234B244D244E254FC1
:103A0000254C4FF0804C984209D0604507D0A84221
:103A100005D0B04203D0B84201D0A04204D122F078
:103A2000700E4A6842EA0E0298421BD0604519D0D7
:103A3000A84217D0B04215D0B84213D0A04211D03E
:103A4000164DA8420ED0164DA8420BD0154DA842D7
:103A500008D0154DA84205D0144DA84202D0144DEF
:103A6000A84203D122F44075CA682A4302608A68DA
:103A7000C2620A688262984201D0A04201D10969FB
:103A8000016301214161F0BD0000014000040040DC
:103A900000080040000C00400004014000400140CC
:103AA000004401400048014000180040001C004054
:103AB00000200040094800214FF4FA7301704FF4D0
:103AC000C87101819A009FED061ADFED060AB2EE79
:103AD0000A0A03210448FFF79BBE0000FC070020F0
:103AE00000000000CDCCCC3D5411002010B525487D
:103AF000264B25490278DFED261A264C93ED020A63
:103B0000042A07D2DFE802F00207202600220A700A
:103B100080ED010A10BD03220A701F498988B1F5A2
:103B2000967F0ED9B7EE000A9FED1C1ADFED1C0A36
:103B30001C4802F067FA1B4890ED010A84ED000A68
:103B400010BD0221017010BDBDE810404FF47A6035
:103B5000FCF7E0BDC4ED001A90ED011A71EE400AC9
:103B6000F5EEC00AF1EE10FA03DCF1EE410A70EE58
:103B7000C00A10EE900AB0F1804FE4DAC4ED021AE8
:103B800010BD0000FC070020210000206807002075
:103B90000000000048060020D6090020000048442C
:103BA00000007042D411002010B50448FEF710FF49
:103BB000BDE81040014802F0F5BC00004C020020B6
:103BC00010B50448FEF704FFBDE81040014802F0BC
:103BD000E9BC00008C02002010B5806B0021C1857B
:103BE000C184FEF7F4FE10BD0168CA6822F4907229
:103BF000CA6001684A6922F001024A61202180F806
:103C00003A10704710B590F83A10222901D00220DE
:103C100010BD8168B1F5805F11D00169002901688C
:103C20001FD0496801F07F03816A4A1C82620B70D1
:103C3000C18D491E0904090CC18518D026E002690E
:103C4000816A002A0268526805D0D2B20A80816A6D
:103C5000491C8162ECE7C2F308020A80816A891C70
:103C6000F7E74A68816A4B1C83620A70E0E70168E3
:103C7000CA6822F49072CA6001684A6922F001029F
:103C80004A61202180F83A10FFF7EAF8002010BDC1
:103C90002DE9F04104460068016921F44052E168D1
:103CA000114301612168C86849F20C62904323699D
:103CB000A268E5691A4363692B431A430243CA6049
:103CC0002168486920F44072A06910434861E169A5
:103CD0006425B1F5004F9748974A21684FF03208A4
:103CE0003FD0914201D081427CD1FEF76FFA00EBC8
:103CF000C00101EB001061688900B0FBF1F6FEF72E
:103D000065FA00EBC00101EB001061688900B0FBAF
:103D1000F1F0B0FBF5F06FF01801484306EB8001BD
:103D200008EB0110B0FBF5F000F0F006FEF74EFADC
:103D300000EBC00101EB001061688900B0FBF1F0FD
:103D4000B0FBF5F006EB0016FEF740FA00EBC00101
:103D500001EB001061688900B0FBF1F7FEF736FA5D
:103D6000D2E0914201D081423DD1FEF72FFA00EB23
:103D7000C00101EB001061684900B0FBF1F0B0FB3D
:103D8000F5F00601FEF722FA00EBC00101EB00108E
:103D900061684900B0FBF1F7FEF718FA00EBC001CB
:103DA00001EB001061684900B0FBF1F0B0FBF5F0E9
:103DB0006FF01801484307EB800108EBC100B0FB2E
:103DC000F5F000F0F80006EB4006FEF7FFF900EB17
:103DD000C00101EB001061684900B0FBF1F7FEF78C
:103DE000F5F93CE055E0FEF7E1F900EBC00101EB2D
:103DF000001061684900B0FBF1F0B0FBF5F006017E
:103E0000FEF7D4F900EBC00101EB00106168490036
:103E1000B0FBF1F7FEF7CAF900EBC00101EB0010AF
:103E200061684900B0FBF1F0B0FBF5F06FF01801EC
:103E3000484307EB800108EBC100B0FBF5F000F050
:103E4000F80006EB4006FEF7B1F900EBC00101EB0C
:103E5000001061684900B0FBF1F7FEF7A7F900EB2D
:103E6000C00101EB001061684900B0FBF1F0B0FB4C
:103E7000F5F06FF01801484307EB800108EBC10033
:103E8000B0FBF5F000F00700216830448860BDE821
:103E9000F081FEF78BF900EBC00101EB00106168C7
:103EA0008900B0FBF1F6FEF781F900EBC00101EBF0
:103EB000001061688900B0FBF1F0B0FBF5F06FF025
:103EC0001801484306EB800108EB0110B0FBF5F048
:103ED00000F0F006FEF76AF900EBC00101EB0010FC
:103EE00061688900B0FBF1F0B0FBF5F006EB00165D
:103EF000FEF75CF900EBC00101EB0010616889007E
:103F0000B0FBF1F7FEF752F900EBC00101EB001036
:103F100061688900B0FBF1F0B0FBF5F06FF01801BB
:103F2000484307EB800108EB0110B0FBF5F000F00F
:103F30000F00A9E7001401400010014090F839106B
:103F4000212901D0022070478168B1F5805F016AA4
:103F50000BD04A1C0262026809785160C18C491E6C
:103F60000904090CC1840ED017E009880268C1F366
:103F70000801516001690029016A02D0491C0162EF
:103F8000ECE7891CFBE70168CA6822F08002CA607E
:103F90000068C16841F04001C16000207047000026
:103FA00010B50448FEF714FDBDE81040014802F0CA
:103FB000F9BA0000CC02002010B50448FEF708FD55
:103FC000BDE81040014802F0EDBA00000C030020EB
:103FD00010B50448FEF7FCFCBDE81040014802F0B3
:103FE000E1BA00004C03002010B50448FEF7F0FCD5
:103FF000BDE81040014802F0D5BA00008C03002053
:10400000FEE7FEE74100080218BF04200A0E18BFB1
:1040100040F001004FF07F4232EA010108BF40F05A
:104020000200012808BF05207047000010B54FF0BE
:104030000E402DED028BB0EE408A18EE104A00EBD8
:104040004400B0F1506F4AD84FF0FC40B0EB440F41
:1040500022D2B0EEC80AF7EE000A30EEC00AF6EE41
:10406000000A60EE208A18EE900A02F097F801EE3E
:10407000100A14F0004F1DBFDFED2D0A9FED2D0A31
:10408000B1EE411ADFED2C0A08BF9FED2C0AF8EEC5
:10409000001A21EE218A05E0DFED290A68EE088A80
:1040A000B0EE600A9FED271ADFED271A30EE080AFE
:1040B00048EE811A9FED251A08EEA11ADFED241AA9
:1040C00048EE811A9FED231A08EEA11A68EE281A0D
:1040D000BDEC028B01EE810A30EE200A10BD4FF0DC
:1040E000E440B0EB440F0CD918EE100AFFF78AFF3A
:1040F000042808BF00F066F9B0EE480ABDEC028B58
:1041000010BD4FF07F40B0EB440F07D2B0EE480A2D
:10411000BDEC028BBDE8104000F046B9012000F074
:1041200069F9BDEC028BBDE8104000F043B9000016
:104130000000C9BF22AAFDB90000C93F22AAFD396B
:104140000000000024FE1C3DC78AD83C1E67383D95
:104150001B93993DAFAA2A3E10EE100A10B510EE3F
:10416000901A4FF0684202EB40032DED028BB3F141
:10417000654F3CBF02EB4102B2F1654F7CD200BFFC
:10418000C0F3C753C1F3C7529A1A1B2A09DD10F0B6
:10419000004F14BF9FED6E0A9FED6E0ABDEC028BBF
:1041A00010BD12F11A0F1BDA11F0004F09D010F0F8
:1041B000004F0CBF9FED680A9FED680ABDEC028BB3
:1041C00010BD80EE208A18EE100AFFF71BFF0428AE
:1041D00008BF00F0F7F8B0EE480ABDEC028B10BD46
:1041E0004200B2EB410F37D910F0004F19BFDFED9D
:1041F0005C1A9FED5C1ADFED5C1A9FED5C1AB0EE65
:10420000602A0A46F1EE400A80F00041B0EE420A10
:1042100010460A1A5200B2F1807F34D2484010F0A2
:10422000004FDFED532A9FED533A1DBFBEEE002A2B
:1042300071EEE21A31EE431AB6EE002A04BF71EEB7
:10424000A21A31EE031AF0EE402A42EE602A40EE46
:10425000020A82EEA02A18E011F0004F04BF9FED81
:10426000461AF0EE411AD4D010F0004F1CBFDFED1B
:10427000431A9FED431A00E026E004BFDFED411A28
:104280009FED411AC5E780EE202A22EE020ADFEDFB
:104290003F0ADFED3F2ABDEC028B40EE202ADFED26
:1042A0003D0A40EE220ADFED3C2A40EE202ADFEDF7
:1042B0003B0A40EE220A22EE000A00EE201A31EEFE
:1042C000020A30EE210A10BD4FF07F42B2EB400FE0
:1042D00028BFB2EB410F05D2BDEC028BBDE8104008
:1042E00000F065B840EA01035B0008BF41F0FF4100
:1042F0000BD0B2EB400F08BFB2EB410F08D120F05A
:10430000804000EE100A21F0804100EE901A37E75D
:10431000B2EB400F12BF5FEA410240F0FF4001F0F4
:1043200000413FF42DAF4A0092EA40033FF528AF29
:10433000002AACBF9FED1A1A9FED1A1A20EE010A4F
:1043400060EE810A10EE100A10EE901A18E70000D5
:10435000DB0FC9BFDB0FC93FDB0F4940DB0F49C093
:104360000000C9BF22AAFDB90000C93F22AAFD3939
:104370000060ED3EC30ACE3700000000000049C0D7
:1043800022AA7DBA0000494022AA7D3A2DAD65BD22
:104390008FB8D53D0FB511BE61C84C3EA8AAAABEC4
:1043A0000000804F0000802F30EE000A704730EE92
:1043B000200A7047DFED020A80EEA00A7047000075
:1043C000000000009FED020A20EE000A7047000086
:1043D0000000001002E008C8121F08C1002AFAD12C
:1043E00070477047002001E001C1121F002AFBD175
:1043F000704700000149086070470000F800002085
:10440000D0ED000AF4EEC00AF1EE10FA01DD80ED05
:10441000000AD0ED000AB1EE400AF4EEC00AF1EE57
:1044200010FA01D280ED000A7047000010B500F0CC
:1044300081FF6420FDF7E4FB0748FDF701FA022144
:104440000548FCF7DFFD0548FDF7FAF9BDE8104027
:1044500002210248FCF7D6BDA4010020CC010020B7
:104460000EB50D4C4FF0FF363246C021684601F0C4
:1044700041F8DDE900050828F6D1280602D50648EE
:1044800001F052FE6806EFD5B4F90A10B4F908003D
:1044900001F080FEE8E70000E60D002070B5184D41
:1044A00000242DED028B43F698269FED168ADFED52
:1044B000168A00BF04EBC40000EB400005EB80004F
:1044C000B0EE481AF0EE680AB0EE0C0A32463346F7
:1044D0000321FFF79DF9641C042CEBDBB0EE481AB6
:1044E000BDEC028B4FF49673BDE87040DFED070A18
:1044F0009FED070A4FF47A7203210648FFF788B947
:10450000F40D0020000000006F12033C8FC2F53D47
:104510000000C842A40F00202DE9F0414D484E4C48
:104520000078052834D2DFE800F0030C9273920083
:1045300002F0AAF99FED490A84ED000A84ED010A10
:1045400022E002F0A1F94648B0F9061000EE101A78
:10455000F8EEC00AB2EE040A60EE800AC4ED000A6A
:10456000B0F9041000EE901AF8EEE00A20EE800A8E
:10457000FAEE040A84ED010AB0F9000000EE100A18
:10458000B8EEC00A20EE200A84ED020A02F09CF97F
:10459000314894EC030A143000F0D2FB314900207A
:1045A000C0EB001204EB400301EB8202401C928836
:1045B000C0B29A810428F3D32B4F002504EB4506A3
:1045C000B6F9140000EE100AB6F90C00F8EEC00AB5
:1045D00000EE100A05EBC50000EB4000B8EEC00A83
:1045E00007EB800001F012F8BDEEC00A6D1C042D2F
:1045F00010EE100AB083E1DB1C48E1690160216A1A
:1046000041601B4880210068BDE8F04100F044BFD4
:1046100002F03AF91748104990ED010A164884ED66
:10462000090A283190ED020A081F84ED0A0A9FED5D
:10463000130A00F027F884ED0B0A94ED0A1A1048CB
:1046400071EE000AB0EE410A00F0E0FF9CE702F0D4
:104650001BF99BE721000020480600200000000015
:10466000C01100200C080020F40D0020E60D0020F1
:1046700004000020FC070020680700200000B4436D
:10468000A40F0020F0EE400A90ED001A91ED000A10
:10469000B4EEC01AF1EE10FA0DDD31EE400AB6EEBE
:1046A000001A20EE811AB4EEC10AF1EE10FA01DD13
:1046B00030EE600A70470DD231EE400ABEEE001AAD
:1046C00020EE811AB4EEC10AF1EE10FAF2D230EE09
:1046D000200A70479FED010A7047000000000000AB
:1046E00010B51249028842800B885BBA03804C885F
:1046F00064BA8480898849BAC180991A8268B1F500
:10470000805F04DD521EA1F50051826006E011F5C4
:10471000805F03DA521C01F500518260C16103EB36
:104720004231828A891A016110BD000039000020DF
:104730000249098849BA0180818270473900002006
:104740002DE9F041C74DC84FA1F201412DED048B79
:1047500007F1240405292E68AA88237849D2DFE8C6
:1047600001F049A4D6FD0300287860F30513000981
:1047700060F34303A878A4F86000E978607861F3F7
:104780000400490961F347106070287960F3000361
:10479000C3F34200237005280BD2DFE800F00306C4
:1047A00014171A009FEDB10A01E09FEDB10A84EDE4
:1047B000190AC3F3011078B1012810D0022811D0D2
:1047C000032816D111E09FEDAB0AF0E79FEDAA0A8E
:1047D000EDE79FEDAA0AEAE79FEDA90A07E09FED42
:1047E000A90A04E09FEDA80A01E09FEDA80A84ED64
:1047F0001A0AB9E0D9079FEDA68A26D0062823D148
:104800000246994897494030FBF77BFDB4F91C00FC
:1048100000EE100AB8EEC00A20EE080A84ED090A7C
:10482000B4F91E0000EE100AB8EEC00A20EE080A25
:1048300084ED0A0AB4F9200000EE100AB8EEC00AAE
:1048400020EE080A84ED0B0A8EE008282CD10246DF
:104850008449A01CFBF755FDB4F9020000EE100AD4
:10486000B8EEC00A20EE080A84ED030AB4F9040089
:1048700000EE100AB8EEC00A20EE080A84ED040A21
:10488000B4F9060000EE100AB8EEC00A20EE080ADD
:1048900084ED050AB4F9080000EE100AB8EEC00A6B
:1048A00020EE080A84ED060A5EE07E65A7F858202F
:1048B000B4F9300000EE100AF8EEC00A94ED190ABF
:1048C00060EE800AC4ED110AB4F9320000EE900ADD
:1048D000F8EEE00A60EE800AC4ED120AB4F9340082
:1048E00000EE900AF8EEE00A20EE800A84ED130A4A
:1048F000A879E979C00040EA5110A4F85E00B0F54B
:10490000806F31D3A0F50060A4F85E002CE047F87A
:104910005A6FBA80B4F9360000EE100AF8EEC00AF9
:1049200094ED1A0A60EE800AC4ED140AB4F9380056
:1049300000EE900AF8EEE00A60EE800AC4ED150A77
:10494000B4F93A0000EE900A4748F8EEE00A8030E9
:1049500020EE800A84ED160AE98800E001E001807B
:1049600002E03E66A7F8642094ED030A94ED041A71
:10497000D4ED061A60EE000AB6EE009A20EE210A87
:10498000D4ED051A41EE010A01EE210A70EEC90AC2
:10499000FFF7E2FBDFED3F8A9FED3F8A324DC0EE2D
:1049A000280AB0EE480A00EE880A85ED020A94ED66
:1049B000030AD4ED050A94ED061A20EE200AD4ED80
:1049C000040A00EEC10AF0EE000A20EE200AFFF70A
:1049D0002DFBC0EE280A20EE880A85ED010A94ED31
:1049E000030A94ED061AD4ED041A60EE000A20EED4
:1049F000210AD4ED051A41EE010A01EE810A70EE9A
:104A0000C90AFFF7A9FBC0EE280A20EE880A85ED47
:104A1000000AB4F9300000EE100AB8EEC00A85EDC5
:104A2000030AB4F9320000EE100AB8EEC00A85EDB0
:104A3000040AB4F9340000EE100AB8EEC00A85ED9D
:104A4000050A94ED140A85ED060A94ED150A85ED24
:104A5000070A94ED160A85ED080ABDEC048BBDE843
:104A6000F0810000280000206807002058A08B3A41
:104A700058A00B3A58A08B3958A00B3958A08B3846
:104A8000E7416B3A3333EB3A33336B3B3333EB3B36
:104A900017B7D138DB0F494000003443EFF30580EE
:104AA000002800D001207047FDF7B6F9FEF71EFF81
:104AB000FEF700FCFEF760FBFEF704FBFEF72EFBA3
:104AC000FEF7EAFCFEF75CFDFEF7C0FCFEF732FDE8
:104AD000FEF796FCFEF768FCFEF706FDFEF7B8FA57
:104AE000FEF7D8FD4FF4FA60FDF78AF8FFF79EFC59
:104AF00001F0CCFCFFF7D2FC00F092F8FEF7DAFFF1
:104B00000C4C012204212046FDF772F901220821F4
:104B10002046FDF76DF9012210212046FDF768F9C6
:104B2000012220212046FDF763F9FEF773FB00F018
:104B3000A1FCFEE7001C024001460020842900D0B1
:104B4000C81C704710B5002843D12A482A4C2B4A6C
:104B5000017894ED130AB2F90200D9B3284BA16988
:104B6000DFED280A994209DB002807DD01EE100A73
:104B7000B8EEC11A01EE200A84ED130A224B9942C5
:104B80000BDC002809DAB0EE401A00EE100AB8EE8D
:104B9000C00A00EE201A84ED131A507A032825D09B
:104BA0009FED1A0A84ED210A84ED0F0A5C3400F0AF
:104BB000E9FB174890ED0F0ABDEEC00A10EE100A8F
:104BC0006087144890ED0F0ABDEEC00A10EE100A7F
:104BD000A08710BDFFE700EE900A9FED0F1AF8EED8
:104BE000E00A00EE810A84ED130AD6E79FED0B0A76
:104BF000D8E700002000002078060020C011002027
:104C000000A02A450AD7A3BB00802644000000006C
:104C10007C100020E81000206F1283BB00803B4511
:104C200010B59C212DED028B1B48FBF783FB9FEDFC
:104C30001B8A9FED1B0A4FF49673B0EE481AF0EEF4
:104C4000480A4FF42F7203211648FEF7E1FDB0EE3B
:104C5000481AF6EE000A9FED140A44F6206347F264
:104C6000305203211148FEF7D3FDB0EE481AF0EEA2
:104C7000480AB1EE000A4FF47A7343F698220321F2
:104C80000B48FEF7C5FD044940F29A20C1F88800A0
:104C9000BDEC028B10BD0000780600200000000073
:104CA000CDCC4C3E101000200000E1437C100020D1
:104CB000E810002010B51D481D4C007830B10128C7
:104CC0000CD002281DD003280ED120E001F0DCFD1D
:104CD0000020A4F89600A4F8980003E001F0D4FDA9
:104CE000002011E001F0F0FD124834F8961F018118
:104CF00061884181104840210068BDE8104000F003
:104D0000CBBB01F0C1FD0120FFF71CFFEAE701F07A
:104D1000BBFD00F037FB094890ED0F0ABDEEC00A5D
:104D200010EE100AA4F89600DCE700002100002035
:104D300078060020E60D0020040000207C100020F2
:104D400030EE202A1CB572EE412ADFED331A002323
:104D50004FEA0D02FDEEE22A12EE901A70EEC02A22
:104D600030EE600AADF8001072EEC12A30EE410A52
:104D7000FDEEE22ABDEEC00A12EE901AADF8021066
:104D800010EE101A32EE010AADF80410B1EE400A2E
:104D9000BDEEC00A10EE101AADF8061032F913106D
:104DA000002901DB0C4600E04C4200EE104AB8EE50
:104DB000C00AB4EEE10AF1EE10FA06DD002900DACD
:104DC000494200EE101AF8EEC01A5B1CDBB2042B4D
:104DD000E4D311EE901A114B994217DD5FF00001F8
:104DE000DFED0F0A80EEA10A32F9113000EE903AA1
:104DF000F8EEE00A60EE800AFDEEE00A10EE903A6E
:104E000022F81130491CC9B20429EDD30099016080
:104E1000019941601CBD00000000000000401C46DC
:104E200000401C462DE9F84FFEF71EF8FD4D1027F7
:104E30002878102816D0002601244FF020084FF0C3
:104E40003009202815D04FF0400A30287ED0402865
:104E500006D16878402803D0FBF748FC85F801A00C
:104E6000BDE8F88F68781028FAD0FEF7AFFB6F70B6
:104E7000F6E76878202803D1A978EA789142EFD044
:104E8000A978102904D0202941D030293ED180E0D2
:104E9000202802D1E878102838D01023E2A200217F
:104EA00008200094FBF73EFE1023E3A20F2106200A
:104EB0000096FBF737FE1023E0A21F210620009486
:104EC000FBF730FE1023DEA22F2106200094FBF713
:104ED00029FE1023DBA20F2114200096FBF722FEEF
:104EE0001023DCA21F2114200094FBF71BFE1023CB
:104EF000DCA22F2114200094FBF714FE0F237B2249
:104F0000194606200094FBF75BFCEF7080E0202838
:104F100002D1E87820287BD01023C3A200210820EA
:104F20000094FBF7FFFD1023C3A20F21062000947D
:104F3000FBF7F8FD1023C1A21F2106200096FBF706
:104F4000F1FD10232F21BEA2062000E063E00094B3
:104F5000FBF7E8FD1023BBA20F2114200094FBF700
:104F6000E1FD1023BBA21F2114200096FBF7DAFD00
:104F70001023BCA22F2114200094FBF7D3FD1F2384
:104F80007B22194606200094FBF71AFC85F8038063
:104F90003EE0202802D1E878302839D01023A2A2A0
:104FA000002108200094FBF7BDFD1023A2A20F21D1
:104FB00006200094FBF7B6FD1023A0A21F210620B7
:104FC0000094FBF7AFFD10239DA22F210620009631
:104FD000FBF7A8FD10239BA20F2114200094FBF7E0
:104FE000A1FD10239BA21F2114200094FBF79AFD22
:104FF00010239CA22F2114200096FBF793FD2F2352
:105000007B22194606200094FBF7DAFB85F8039013
:1050100085F8018024E76878302803D129796A79F6
:105020009142F7D02979102906D0202958D030296B
:105030007DD0402953D139E1302802D16879102838
:105040004DD010237FA2002106200094FBF76AFDBB
:10505000102379A20F2106200096FBF763FD102391
:1050600076A21F2106200094FBF75CFD102374A29A
:105070002F2106200094FBF755FD10237DA20F2160
:1050800044200096FBF74EFD10237AA21F214420F6
:105090000094FBF747FD102376A22F2144200094B3
:1050A000FBF740FD75A310220F2114200096FBF79B
:1050B000AFFB74A310221F2114200094FBF7A8FB60
:1050C00072A310222F2114200094FBF7A1FB0F23C1
:1050D0007B22194606200094FBF772FB6F71F3E008
:1050E000302802D168792028F9D0102355A2002158
:1050F00006200094FBF716FD10234FA20F21062077
:105100000094FBF70FFD10234CA21F2106200096F0
:10511000FBF708FD10234AA22F2106200094FBF77D
:1051200001FD10230F2153A24420009400E02EE043
:10513000FBF7F8FC10234FA21F2144200096FBF739
:10514000F1FC10234BA22F2144200094FBF7EAFC32
:105150004AA310220F2114200094FBF759FB49A306
:1051600010221F2114200096FBF752FB47A31022A8
:105170002F2114200094FBF74BFB1F237B221946A1
:1051800006200094FBF71CFB85F805809CE0302886
:1051900002D16879302844D010232AA200210620A9
:1051A0000094FBF7BFFC102323A20F2106200094DC
:1051B000FBF7B8FC102321A21F2106200094FBF767
:1051C000B1FC10231EA22F2106200096FBF7AAFC9B
:1051D000102328A20F2144200094FBF7A3FC1023E6
:1051E00024A21F2144200094FBF79CFC102321A241
:1051F0002F2144200096FBF795FC20A310220F21BD
:1052000014200094FBF704FB1EA310221F2114207E
:105210000094FBF7FDFA10222F211CA31420009606
:1052200038E051E0140700202D2D2D2D2D4D656EF9
:10523000752D2D2D2D2D0000312E0000322E000059
:10524000332E000046756E6374696F6E204C69736F
:1052500074000000446174612050616E656C202010
:105260002000000053797374656D20536574757068
:10527000200000002020202020202000C8CECEF1D9
:10528000D2BB0000C8CECEF1B6FE0000C8CECEF133
:10529000C8FD0000FBF7BCFA2F237B22194606202D
:1052A0000094FBF78DFA85F805900DE0302802D1C7
:1052B0006879402808D0102305A214210C200094FE
:1052C000FBF730FC85F805A085F80190C8E50000E3
:1052D0005461736B5F312052756E6E696E670000AA
:1052E000104808B50521006800F062F90E480A214F
:1052F000006800F05DF90D480121006800F058F9E0
:105300000B480A21006800F053F900F0B8F800904B
:1053100001F0BAFA01F0D8FA1421684600F0A3F8B7
:10532000F6E700000C000020140000201000002010
:105330001800002000B58BB00020012103900490DC
:10534000CDE90601CDE9081005900090019002908A
:1053500069460B48FBF7CEFE69460948FBF7CAFED3
:105360000028F9D10E20059069460548FBF7C2FEDA
:1053700069460348FBF7BEFE0028F9D10BB000BD1B
:10538000A401002070B52A4D2A4C2B4A28882B49AD
:1053900000EE100AB8EE400A84ED060AD4ED220AA7
:1053A00094ED131A10EE100AF8EEE00A904271EE36
:1053B000200AC4ED040A04DA10EE100A204A9042D2
:1053C00001DC012000E0002008701A499FED1D0A51
:1053D0001831A1F10800FFF755F984ED170A94ED93
:1053E000061A194871EE000AB0EE410A00F00EF9F3
:1053F0001548D0ED0F0AC4ED0C0AB5F9040000EE13
:10540000100A1248B8EEC00A84ED0E0A00F0FEF849
:105410000F48B0F9040000EE100A0E48B8EEC00ABA
:1054200084ED100AD4ED0F0ABDE8704000F0EEB82C
:10543000380900207806002000A02A45200000201E
:105440000080264400F8FF45101000207C1000204A
:10545000FC080020E810002010B500B9012001F080
:10546000E5FA002010BD10B501B9012101F004FBDF
:10547000002010BD10B501F0D3FB002010BD10B509
:10548000FFF70CFB18B1BDE8104002F083B8BDE88F
:10549000104002F079B80000FEB5064600200D4627
:1054A00002900190FFF7FAFA4FF0004498B102A879
:1054B000009001AB01222946304601F0DFFF0128B0
:1054C00011D1029888B10A49E0080860BFF34F8FF4
:1054D000BFF36F8F09E001AB01222946304601F08E
:1054E00067FF012801D02046FEBD0198FEBD0000E7
:1054F00004ED00E0FEB5002506460F462C4601955A
:10550000501C06D002B11446FFF7C8FA20B1822021
:1055100015E04FF0FF34F7E723463946002001AA93
:1055200002F0A4F8012804D00CB1402007E0009557
:1055300006E00198002801DA862000E008200090AB
:105540009DE8070086E80700FEBD10B502F00EF8E2
:10555000012803D0BDE8104001F086BC10BD3EB567
:1055600004460D46B0F90800FFF7E6FA02A9CDE9B6
:105570000001208A2B4682B2D4E9001001F0ECFE33
:10558000012801D000203EBD02983EBD08B500684C
:105590000090012907D0002013460246012103A0F4
:1055A00002F092F908BD0120F6E7000000000000BB
:1055B0002DE9FC41002507462E4601950C0000D13F
:1055C0000124FFF76BFA009690B101AB2246092146
:1055D000384602F0C5F9012812D1019888B10A496C
:1055E0004FF080500860BFF34F8FBFF36F8F08E01C
:1055F000002322460421384602F0B2F9012800D0E7
:10560000FF252846BDE8FC8104ED00E000B530EE42
:10561000C01A80ED080AC0ED050A80ED0B1AD0ED26
:10562000141A01469FED692A30EEC00AF5EEC01A41
:10563000B1EE400AF1EE10FA0ED0B5EEC01AF1EE5E
:1056400010FA02DDF0EE410A01E0F0EE400AF4EE5D
:10565000E10AF1EE10FA12DCD1ED150AF5EEC00AFE
:10566000F1EE10FA0ED0B5EEC01AF1EE10FA01DD2F
:10567000B0EE410AB4EEE00AF1EE10FA02D2B0EE5A
:10568000420A00BD886D01F13402032802D00428CB
:1056900038D07AE091ED000A104620EE010A81ED43
:1056A0000C0A91ED0D0AD1ED010A00EE810A81ED9F
:1056B0000D0A91ED0A0AD1ED020A31EE400A20EE00
:1056C000200A81ED0E0A91ED180AB8EE400AFEF7A5
:1056D00097FE91ED0C0AD1ED0D0A01F13C0030EE80
:1056E000200AD1ED0E0A30EE200A81ED0F0A91ED6D
:1056F000170AB8EE400AFEF783FE91ED0F0A81ED1E
:10570000100A42E091ED0A0AD1ED001A104671EE3E
:10571000400A60EEA10AC1ED0C0AD1ED010A60EE6B
:10572000810AC1ED0D0AF0EE000A00EE601A91ED5B
:10573000090AD1ED020A31EE000A20EE200A81EDBD
:105740000E0A91ED180AB8EE400AFEF759FE91EDE7
:105750000C0AD1ED0D0A01F1480030EE200AD1ED1E
:105760000E0A30EE200A81ED110AD1ED130A30EE57
:10577000800A81ED120A91ED170AB8EE400AFEF791
:105780003FFE91ED120A81ED130A91ED0A0A81EDB7
:10579000090A91ED0B0A81ED0A0A91ED070A81EDE4
:1057A000060A91ED080A81ED070A91ED040A81EDE0
:1057B000030A91ED050A81ED040A886D032802D0E1
:1057C00091ED120A00BD91ED0F0A00BD000000002E
:1057D00000F1580C8CE80E0080EC030A704780EC56
:1057E000030A70472DE9F041184C0F460546E6685C
:1057F0002068001D01F004F838B9206890F82C10DA
:1058000001208840216981432161681C07D137B19B
:105810002168BDE8F0410E48091D01F029B8206853
:105820003544B5424560216805D2A06BBDE8F04122
:10583000091D01F005B8606B091D01F001F8A06AAF
:10584000854200D2A562BDE8F0810000A8000020DA
:10585000044F00202DE9F041054601F015F82E4CCB
:10586000A068401CA06020682C4F10B1606940B354
:105870002DE02560A068012829D1002606EB8600CE
:1058800007EB800000F0CEFF761C072EF6D32348EE
:105890008C3000F0C7FF2148A03000F0C3FF1F4844
:1058A000B43000F0BFFF1D48C83000F0BBFF1B48FC
:1058B000DC3000F0B7FF19488C3060631430A0630F
:1058C00005E02068E96AC06A884200D82560606AFD
:1058D000401C6062E96A012022698840104320610F
:1058E00001EB810007EB8000291D00F0C1FF00F0F3
:1058F000EBFF606900280CD02068E96AC06A884222
:1059000007D207494FF080500860BFF34F8FBFF3B5
:105910006F8FBDE8F0810000A8000020284E002015
:1059200004ED00E010B500F0AFFF0E4C2068A0B908
:105930000D4800F077FF0C48143000F073FF0A4860
:10594000E0601430206100220C210A2001F0A2FA4C
:10595000206010B105A101F033F8BDE8104000F05F
:10596000B3BF0000E4000020184F0020546D7251B6
:105970000000000070B5114E114C17E001F088F9DD
:105980003068B8B101F03EFF00F07EFFF068C568F6
:10599000281D00F035FFA068401EA0606068401E12
:1059A000606000F091FF284600F055F8606800281C
:1059B000E4D170BD01F026FFF8E70000F04E0020B2
:1059C000A800002030B4026C0B46002A0BD0C1683E
:1059D0001144C1604468A14201D30168C16030BC78
:1059E0001846FAF78EBC30BC70472DE9F041856B44
:1059F000174604460026026C82B1C7B1E068FAF788
:105A000080FCE168206C091AE1602268914202D2B0
:105A10006168081AE060022F16D017E02068A8B964
:105A2000606801F069FE0646002060600EE0A06834
:105A3000FAF767FC216CA0680844A060616888429E
:105A400004D32068A06001E005B16D1E6D1CA56344
:105A50003046BDE8F08110B50446006B00F048FF09
:105A60002046BDE8104000F043BF000010484FF44E
:105A70007051420706D0C01D0D4920F00700411AA1
:105A8000C1F570510B4A00230144C2E900030839F3
:105A9000103A21F0070111604B600B600B1AC0E94E
:105AA000001393604FF000405360D06070470000D7
:105AB000E811002094000020074C4FF08056074D5D
:105AC000FFF758FF20680128FAD92E60BFF34F8FE7
:105AD000BFF36F8FF4E70000284E002004ED00E0D4
